:020000040001F9
:10D00000502F0020F5F501003FE8010057EE010028
:10D010000000000000000000000000000000000010
:10D0200000000000000000000000000033F00100DC
:10D0300000000000000000008FF601009BF60100D8
:10D04000B5F60100B7F60100B9F40100B9F6010028
:10D05000BBF6010000000000A5F20100BDF60100D2
:10D06000BFF60100C1F60100C3F60100C5F60100DC
:10D07000C7F60100C9F60100CBF60100CDF60100AC
:10D08000CFF6010031D60100D1F60100D3F6010040
:10D0900049D60100D5F601005BED0100D7F601008D
:10D0A000D9F60100DBF601000000000000000000DE
:10D0B0000000000000000000000000000000000070
:10D0C0000121C006C00E8140A148016070470121C6
:10D0D000C006C00E81409F48016070470121C00614
:10D0E000C00E81409C480160704710B58207D30E86
:10D0F000FF249C40E2438907090E9940030004D5B0
:10D1000096481B071B0F083B00E095489B089B00B7
:10D11000C01803681A401143016010BD401E00BFD3
:10D1200000BF00BF00BF00BF00BF00BF00BF00BF07
:10D1300000BF00BF00BFF1D1704738B5802080022A
:10D140008849086088488021490201640160C54C13
:10D15000012525602F20FFF7E1FF6560C24C002507
:10D1600065612F20FFF7DAFF257131BD401A0002FB
:10D17000000A7047F0B5BC4A946824214143651801
:10D1800011690023DB43994209D024234B43E6185D
:10D1900077686B689F4204D3FB1A73602962106141
:10D1A000F0BD0A0024265643A61977689F4207D28D
:10D1B000DB1B1100326A0026F643B24202D0F1E7CF
:10D1C000FF1A77606B602A6224225143611808625B
:10D1D000F0BDF0B5A44E37693C002100B2680023D1
:10D1E000DB4301E00C00296A994221D024254D43FC
:10D1F00055198142F6D18C420CD124204743D019D5
:10D20000006A3061984205D10120984908600021E8
:10D21000716170716868296A24256C431419216250
:10D22000994205D02423594351184A681018486080
:10D23000F0BDF8B58C4D28690021C94388423BD028
:10D24000002700268A4800686969FFF78FFF0400FD
:10D2500028690090A8680099242251434018416829
:10D260008C4218D3641A7618016A00918269C169E8
:10D270002B6A180008D010009847002806D000221A
:10D28000002100F0E5FA01E0080090470098002135
:10D29000C9438842DED1E878A978814205D1401C93
:10D2A000E870C0B2022800D1EF70E878800028183A
:10D2B00086611420FFF70BFFF1BDFEB56A4C2069B3
:10D2C00002906846617801710027684600796946D6
:10D2D000421E0A71002833D0E0680979C90040185D
:10D2E000009005780AE04068A168242242438E1825
:10D2F000317D002902D0FFF76CFF37750098407828
:10D300008542E2D0009840681821694340186D1C9E
:10D3100000998978EDB28D4200D10025017802296B
:10D32000E1D00329EAD120690021C9438842E5D030
:10D33000A1682422504308180775006A2061F2E7AB
:10D3400020690299884201D00120FEBD0020FEBD67
:10D3500000E100E000E200E080E200E01CED00E01F
:10D3600000E400E080E100E008130140F0B583B084
:10D3700006003D48006901903B48407869460870C6
:10D3800068460078411E6A4611700028364860D011
:10D39000C06869460978C90044180CE0002068603C
:10D3A0000020A860E860012028750020C0432862A2
:10D3B0003800FFF7DFFE0020C043864239D12178D4
:10D3C00060788142DCD0606818224A438018491C8A
:10D3D0002170A278C9B2914201D100212170476821
:10D3E0002149896824227A438D1801780129E6D1E0
:10D3F000297D0029E3D18168A960C168E9600169DC
:10D4000029614069E86118484079002801D000206E
:10D41000A86015484069AA68111A0902090AC74B91
:10D4200099420ED201001000FFF7A0FEE9684018F3
:10D43000B5E737000C4880682421794345182E6AE7
:10D44000E7E71100FFF792FEE9688842A6D2081AC2
:10D45000A5E700690199884201D00120FEBD0020A6
:10D46000FEBD000004100140C82600200810014045
:10D47000041501407CB50025ED43C3484069019087
:10D48000C1498A781100C04BDB789A4210D0491C00
:10D49000C9B2022900D10021BB4A8B00D21894697D
:10D4A00000190002000AB84A50610120009001E012
:10D4B00000240094B4488170FFF7FFFE0600B248D4
:10D4C00000690099002922D0002211E0E41AD21844
:10D4D00000234B600B750090086A0B69002B07D086
:10D4E000019EB6183602360A8E60CB600D62009D32
:10D4F0000021C943884209D0A349896824234343B2
:10D50000C9184B689C42E1D21A1B4A6001269E4909
:10D5100008612800FFF72AFF002801D1002E48D01B
:10D52000994800690021C943884240D096498968DA
:10D5300024225043081840680090BD4D286801908F
:10D540009148446921000198FFF710FEC61C8E48DF
:10D550000079002813D1B748802149020164016095
:10D560001120FFF7BBFD1120FFF7AAFD0120B249F2
:10D5700008602F20FFF7D2FD012083490871009831
:10D58000864200D20600A0190002000AE8632C6857
:10D590000199FFF7EBFD050001992000FFF7E6FD7B
:10D5A000C01C854205D21120FFF791FD01E0FFF775
:10D5B000C4FD00207449487173BD417070474278C2
:10D5C000521C83789A4200D1002203789A4201D1FA
:10D5D000002070470A6041684078182250430818BC
:10D5E0007047F0B583B00C0017001E00C00000901B
:10D5F000654D01A9E868009A8018FFF7E0FF002850
:10D6000001D10420FEBD01210170446088490968F0
:10D610008160C7600661089941610199E868009AD4
:10D620008018FFF7CAFF1420FFF751FD0020FEBD50
:10D6300080B582480021016441648164C164016055
:10D640004160FFF7F6FD01BD80B5FFF713FF01BD97
:10D65000F7B507001C000326344201D1002C01D18C
:10D660000720FEBDFFF769FD474D08982862684610
:10D6700000792870AC600021002006E0AA6824230D
:10D680004343D21811701175401C6A4612799042BA
:10D69000F4DB104624225043201804006E70EC6026
:10D6A00018340022D300C318197059706E46367AA8
:10D6B0009E705C606B461B7A18267343E418521CFC
:10D6C000032AEFDB0020C0432861A970E970142011
:10D6D000FFF704FD03211420FFF707FD1420FFF7D7
:10D6E000EFFC534C676003211120FFF7FEFC20681C
:10D6F00068610020FEBDF0B5514B9C68002C01D143
:10D700000820F0BD150001D0002801D10720F0BD90
:10D71000002500E06D1C1E78B5420CDA24266E430D
:10D72000A6193778002FF5D1012333707170B261DB
:10D7300005600020F0BD0420F0BD0000FFFF7F0069
:10D7400040480068C205D20D1CD0103A03200321C6
:10D750001140C90053B2002B04D53B4A1B071B0FD5
:10D76000083B00E0394A9B089B00D258CA40910907
:10D770000840012802D0032802D003E000207047AF
:10D780000120704702207047C8260020F8B5040029
:10D790000D0017002A48816800290CD000788442C7
:10D7A00001D2052D01D20720F2BD242060430818C4
:10D7B0000178012901D00820F2BD4078012801D16B
:10D7C0002E0000E00026FFF7BBFF009733002A0081
:10D7D0002100FFF706FFF2BD70B582B00400184DBE
:10D7E000A868002809D029788C4201D3072076BD8B
:10D7F00024216143405C012801D0082076BDFFF759
:10D800009FFFC6006946E8688019FFF7D8FE002828
:10D8100001D1042076BD0221017044600099E868BE
:10D820008019FFF7CAFE1420FFF751FC002076BDD7
:10D830000415014004130140001001400011014093
:10D84000C826002004ED00E01CED00E000E400E04C
:10D85000BFF34F8F024803490860BFF34F8FFEE7C5
:10D860000400FA050CED00E001784078000208435E
:10D87000704780B50A000100A248FFF7E9FF01BD2B
:10D8800080B5A14873DF002805D0082803D0002206
:10D890000021FFF7DDFF022000F086FB002803D007
:10D8A00000220021FFF7D4FF0020C4DF002806D0AB
:10D8B0009649884203D000220021FFF7C9FF01BD2D
:10D8C00010B58EB0684600BF14A10CC90CC0302141
:10D8D00000F016FC022002A9087001228A700622BC
:10D8E000CA70088268460790002102A800F0D9FD9E
:10D8F000002803D000220021FFF7AAFF824C182144
:10D90000200000F0FDFB00202070606020722820C5
:10D910002082B42060820EB010BD00000D180100FE
:10D920000A18010030B597B0032069460870142129
:10D9300001A800F0E5FB0024019401A804716946E8
:10D9400003911125057344738473C573047401A98D
:10D950006F4800F0F1FE002803D000220021FFF7FD
:10D9600077FF402106A800F0CBFB00BF09A106A865
:10D9700000F05CFF06A83C2145543D30047006A829
:10D9800000F0B1FF002803D000220021FFF760FF64
:10D9900017B030BD4E6F7264696353656D69636F14
:10D9A0006E647563746F72000078002800D0704751
:10D9B00080B53B215748008876DF002803D000223D
:10D9C0000021FFF745FF01BD80B500220021FFF7D0
:10D9D0003FFF01BD0178002900D07047F8B54178BC
:10D9E000072936D0802936D1C1784E39012932D85D
:10D9F000801C0500C01DFFF737FF06006F7A6846E0
:10DA0000A97A0170424CE8788021884304280CD11F
:10DA1000206D381A012807D1681DFFF725FF311A3C
:10DA200089B2200000F0DEFE2765684601782000FC
:10DA300000F0ACFE00280ED008280CD0A149884286
:10DA400009D0A149884206D000220021FFF700FF3B
:10DA5000F1BDFFF715FFF1BD38B504002D4D288845
:10DA60002188102908D0112912D013291CD0192976
:10DA700021D0522930D031BD072000F095FA00287E
:10DA800003D000220021FFF7E3FEA088288031BDEB
:10DA9000002000F089FA002803D000220021FFF7BF
:10DAA000D7FE0020C5DF12E00023002285217FDFA2
:10DAB000002819D00EE0A079002815D100F074FAE2
:10DAC000002803D000220021FFF7C2FE3CDF00281F
:10DAD0000AD00022002105E0032300220021A9DF53
:10DAE000002801D0FFF7B4FE31BD10B504002100BD
:10DAF000764800F01CFD200001F05FF82000FFF7E1
:10DB0000ABFF10BDEFBEADDE2827002015400000A2
:10DB1000142200201022002030B587B06B4C00206A
:10DB2000009023005C3305220521FFF791FD0028BA
:10DB300003D000220021FFF78BFE00234822BB20E8
:10DB400080002118082001F0E4F8002803D000220A
:10DB50000021FFF77DFE68460021002206C06846CE
:10DB6000017060DF002801D0FFF772FE584801F015
:10DB7000E4F8002803D000220021FFF769FE554891
:10DB800001F0E3F8002803D000220021FFF760FE37
:10DB900000225149032000F015FA002803D000228A
:10DBA0000021FFF755FE1120694608700C2200BFC6
:10DBB0004EA168467CDF002803D000220021FFF739
:10DBC00047FE464878DF002803D000220021FFF7F7
:10DBD0003FFE01A80021002206C0C820400001A984
:10DBE000088042004A80002500228A80C88001A85F
:10DBF0007ADF002802D00021FFF72AFEFFF760FE3F
:10DC0000FFF790FE1C21684600F07AFA0095A020EC
:10DC100080020190F0200003029068460321017306
:10DC2000A189C18105742E4805902E48069068464A
:10DC300000F072FF002803D000220021FFF708FE49
:10DC400001F0A0F8002803D000220021FFF700FE19
:10DC5000543421000020CCDF002803D00022002112
:10DC6000FFF7F6FD0023002240210020C2DF00283C
:10DC700002D00021FFF7ECFD0023782200210020D4
:10DC8000D3DF002802D00022FFF7E2FD3921002077
:10DC9000CDDF002803D000220021FFF7D9FD124973
:10DCA0000020D1DF002803D000220021FFF7D0FDA3
:10DCB000FFF7E6FD48DF0028FCD000220021FFF737
:10DCC000C7FDF7E7043000000134000014220020F3
:10DCD000EBDA0100D5D90100CD0C000041030000B2
:10DCE000A9D90100C9D90100861F00006E726635EE
:10DCF000313432325F48524D00000000F1B500204F
:10DD00000024A84A8300D3586D462D78AB4202D038
:10DD1000401C0428F6D304282CD2A94E4200121825
:10DD2000B5183718B06A002915D002291AD01AD2AE
:10DD30002C78697800290BD032000D3271690A23E2
:10DD40005943FFF723FD002802D16846007870731D
:10DD5000A878387407E0FFF73FFDAC78387CA04224
:10DD600008D100E06C78002C04D0716A080001D062
:10DD700020008847F1BD80B502210078FFF7BEFF83
:10DD800001BD0000F1B582B0002500218C4E706904
:10DD90008200101801906846007A0090A022520478
:10DDA000B94C80208003009B172B14D801A7FF5C7F
:10DDB0007F00BF440B11112734465F6F7581758159
:10DDC000919595959595B9BFC7D1DADAB020400401
:10DDD0006060A5603573CFE06260A5606946097A2E
:10DDE0002268F0235B045340034006D06060A560C6
:10DDF00002291ED1E120C00031E0A0606560022947
:10DE00001CD12BE06260A5602168F02252044A40D8
:10DE1000024021D06060A560C82080001FE06260E1
:10DE2000A5602168F02252044A40024004D060609C
:10DE3000A560FA20000112E0A0606560C8204000E3
:10DE40000DE06260A5602168F02252044A40024061
:10DE500002D06060A56001E0A0606560C8206946EE
:10DE6000097A31737569642100F09EFF45432900EA
:10DE700000222CE06260A5602168F02252044A4032
:10DE8000024002D06060A56001E0A06065600620ED
:10DE900030730EE06260A560A060656007206AE0F4
:10DEA00020688021C903814361608021C903084043
:10DEB000A060002271690AE020688021C9038143C3
:10DEC00061608021C9030840A06000220199F069C7
:10DED000FFF75CFC01004FE0F0204004A0601EE072
:10DEE000306AFFF779FC01001120009A801A802720
:10DEF0003F04002815D0002913D102280ED3019524
:10DF000071690091C8214843642100F04DFF0099D8
:10DF10004143019A306AFFF739FC0100A760656050
:10DF20002AE06760A56027E0F02040046060A560FB
:10DF3000122020E0E02252046260A560A0606560CB
:10DF4000132018E0D02040046060A5608020C0034A
:10DF5000A060656014200EE0C02040046060A560F1
:10DF60008008A0606560152005E0F0204004A060F6
:10DF700065606846007A30730800FEBD3248017E55
:10DF8000C90700D4704780B5007BFFF7FBFE01BDD9
:10DF90003D4801688022120413008B4343600A400D
:10DFA00082607047A0E0010080B50021264A127E01
:10DFB000D20702D5FFF7E6FE0100080002BD00000F
:10DFC0009C260020F2B50600002700201E4D696146
:10DFD000AE616A62B1071ED5002401220121200032
:10DFE00000F034F8641C042C01D20028F5D000287D
:10DFF00005D10098420804212DA000F081FF0028DF
:10E0000001D100F0B4FF002805D1204A00212800EA
:10E010002830FFF770FBF10705D51D49F0225204A7
:10E020000A604F600A61002805D11A4A00212800C1
:10E030001C30FFF760FB002805D1174A012120356D
:10E040002800FFF758FBF2BD9C26002030B50300E6
:10E050000020042B16D2012A05D1012902D11A0071
:10E060000D3200E000220D4C5D00EB18E318002992
:10E0700006D0022902D005D21A7030BD5A7030BDC8
:10E080009A7030BD072030BD0405005077DD0100D7
:10E09000080500507DDF010091DF01009C26002073
:10E0A0001100000012000000130000001400000026
:10E0B00011000300FDDC010012000300FDDC010083
:10E0C00013000300FDDC010014000300FDDC01006F
:10E0D000130030B414001500103902D310393CC0BD
:10E0E000FCD2490700D30CC000D504C0890002D37C
:10E0F0000280801C002900D5027030BC70470000EF
:10E100000022E5E70870000A4870022070477FB5DA
:10E1100084B000240C9D28780290002604E0287822
:10E12000097840182870761C04980088864232DAF4
:10E1300001A804994968B20089180A8802804A88AF
:10E1400042800022694665DF00282CD168460078AD
:10E15000097E8842E7D1002C01D0002000E0022097
:10E1600029786A4612788A181018202801DB0C20BA
:10E1700019E0002C07D1491C481C28706846007D16
:10E18000C9B25854012428781A18694601A865DFD5
:10E190000028C4D007E0002C04D028780299401A47
:10E1A000401E5854002008B070BDF8B50500160098
:10E1B0001F00069C00940222FFF7A9FF002806D149
:10E1C00000943B00102231002800FFF7A0FFF2BDB1
:10E1D0007CB582B004000D001178881D202801D381
:10E1E0000C2014E020886A46108068460288062ABF
:10E1F0000CDB1A4B1A4EB24201DB9A4206D1608800
:10E20000062803DBB04204DB984208D0072004B0A4
:10E2100070BD9A4203D06A4612889042F6D3052018
:10E220006854491C481C029A10701222C9B26A54E0
:10E23000C0B229182088FFF765FF029909780818ED
:10E2400002990870C0B229186088FFF75BFF029935
:10E2500009780818029908700020D8E7FFFF00002D
:10E26000810C000070B505000C001600A888801C09
:10E270003178C3B2CB189B1C202B01DB0C2070BD66
:10E28000401C6054491C481C3070FF22C9B26254C3
:10E29000C0B221182888FFF735FF31780818307090
:10E2A000AA88002A0CD0A968002901D1072070BDD6
:10E2B000C0B2201800F074FE3078A9884018307081
:10E2C000002070BDF2B506001700B06A002830D0FB
:10E2D000002409E0009BC0B2181800F061FE3878F5
:10E2E000A98840183870641C300028300079E4B2E6
:10E2F000844220D2B06A0C21614345183978A8883D
:10E30000C01C009A5054491C481C38701622009BAF
:10E31000C9B25A540099C0B209182888FFF7F2FE12
:10E32000397808183870AA88002ADCD0A968002932
:10E33000D0D10720F2BD0020F2BDF8B506000C00D8
:10E34000170000253D703078002822D07078801C9E
:10E35000202825DA1D2069460880A01C7DDF0028C2
:10E3600023D13078022805D1684600881E2801D2C2
:10E37000092006E008207178002901D01E2901D368
:10E38000694609884A1C227060703878891C4018D8
:10E390003870B07800281BD03878001D202801DBA9
:10E3A0000C257CE0684679DF002877D13878032196
:10E3B0002154401C411C39701921C0B221543878B5
:10E3C000211868460088FFF79DFE397808183870D4
:10E3D0000220F17800290BD039786054491C0122C1
:10E3E000C9B26254491C4A1C3A70F278C9B26254EC
:10E3F0007168002910D0002289563A78D51C202D4A
:10E40000CEDAA054521C0A20D2B2A054521C501C86
:10E410003870D2B2A15400253089002809D0009765
:10E4200023000622022130000830FFF7BEFE05005F
:10E4300035D1308A002809D0009723000722032114
:10E4400030001030FFF7B1FE050028D1308B0028D6
:10E4500009D0009723001522142130001830FFF74F
:10E46000A4FE05001BD1306A002805D03A00210027
:10E47000FFF7AEFE050012D1706A002805D03A0001
:10E480002100FFF7EFFE050009D12C20305C0028A9
:10E4900005D03A0021003000FFF714FF05002800E6
:10E4A000F2BD70B592B00D0000246A4614800028B9
:10E4B0000CD0C178490701D407201CE0521C09A9DF
:10E4C000FFF73BFF002816D109AE00E00026002D23
:10E4D0000BD0E8780028EFD16A4601A92800FFF7A1
:10E4E0002CFF002807D101AA00E00022684603782B
:10E4F0004178300072DF12B070BD30B401210022CB
:10E500000368001D002B0BD00468001D0C4202D0D4
:10E510004D466D1E64192260241D1B1FF0D0FAE7C2
:10E5200030BC70470870000A48700220704780B500
:10E530000A88102A04D0112A04D0502A05D001BD1F
:10E54000898800E0B549018401BD891D0A88838955
:10E550009A420FD10A8B022A0CD10268130009D00B
:10E56000897ECB07DB0F591E8941C90F6B46197095
:10E570006946904701BDF4B582B005000800002649
:10E580000024691D0A78002A00D004240227497F4C
:10E59000002902D0210002240C43FF2809DD2100BC
:10E5A00001240C430299491CFFF7BCFF471CFFB232
:10E5B00001E0029948704C20285A00280DD0200014
:10E5C0001024044309E000970299C919808CFFF7D1
:10E5D000A9FF00990F18FFB2761C4C20295A8E42D1
:10E5E0000CDA70002818BA1C152AECD3891B4A00D3
:10E5F000243001002800243000F000FD4C20285A6F
:10E60000801B4C352880029804703800FEBD70B520
:10E6100094B004000D00032101A8FFF771FD01A8CB
:10E6200011210170297B01AA51708178F9220A40D9
:10E630000221114381701C2108A8FFF761FD08A881
:10E6400000781021014308A80170002609960B9656
:10E650000C9601A80D900E9602A8012181707049B8
:10E66000018003216846FFF74BFD687B694608700F
:10E67000A87B487068468178E3220A400321114351
:10E680008170142103A8FFF73BFD02A803906846A0
:10E69000049003AD0FAA00212000FFF76CFF288132
:10E6A0006E811420A8810FA807902300083303AAC5
:10E6B00008A9E088A2DF14B070BDF0B58FB00400E7
:10E6C0000D001C2107A8FFF71BFD6846007F0221F3
:10E6D000014368460177002608960A960B960C9629
:10E6E0000D96012701A887704E49018003216846D5
:10E6F000FFF706FDE87B69460870287C487068468D
:10E700008178E2220A40022111438170142102A87B
:10E71000FFF7F6FC01A802906846039002A8078163
:10E7200046818781A86806902300103302AA07A9B2
:10E73000E088A2DF0FB0F0BD38B504000D002868F6
:10E740002060287960713548208400202222A0545E
:10E750004C21605268460121817033490180A21D1D
:10E7600069460120A0DF00280FD129002000FFF713
:10E770004EFF002809D1A868002805D029002000F4
:10E78000FFF79BFF002800D1002032BD70B58AB092
:10E790000400208C214A904221D005AA2000FFF7D6
:10E7A000EAFE02006846028001A80021002300253D
:10E7B00000266AC001A8218901800121817083801F
:10E7C0006846039005A8049001A9208CA6DF0028C4
:10E7D00006D169460988914202D00C2000E0082049
:10E7E0000AB070BD38B504000D004C20205A142822
:10E7F0000BD12622210026312000243000F0FEFB20
:10E800004C20205A401E4C2160524C20205A411C62
:10E810004C22A15240002018858431BDFFFF00002A
:10E82000372A0000382A00000D18000038B505000E
:10E830000C00200000F0F5FB28806C6031BDFEE785
:10E840000870000A487002207047F3B58FB01400BA
:10E850001D000846002803D100220021FEF7F8FF22
:10E86000002C04D1002200210020FEF7F1FF1C2122
:10E8700007A8FFF745FC02266846007F02210143F6
:10E8800068460177002708970A970B970C970D9712
:10E8900001A8012181706946898F018003216846A2
:10E8A000FFF72EFC2878694608706878487068463B
:10E8B0008178E2220A4016438670142102A8FFF7ED
:10E8C0001FFC01A802906846039002A804814781BA
:10E8D000848110980690169B02AA07A968480088B0
:10E8E000A2DF11B0F0BDF0B585B0040001A8012190
:10E8F000817064490180624D2A0001A90120A0DFD6
:10E90000002843D12288002A09D0281D0090230026
:10E910003C3361685C48FFF798FF002836D12289B4
:10E92000002A0AD028000C30009023003C33E16814
:10E930005648FFF78AFF002828D1228A002A0AD0E9
:10E9400028001430009023003C3361695048FFF7E1
:10E950007CFF00281AD1228B002A0AD028001C3004
:10E96000009023003C33E1694A48FFF76EFF00281E
:10E970000CD1228C002A0AD02800243000902300D9
:10E980003C33616A4448FFF760FF002876D1228D4E
:10E99000002A0AD028002C30009023003C33E16A82
:10E9A0003E48FFF752FF002868D1236B002B27D089
:10E9B00002AA03CB083B107003CB083B0004000EF7
:10E9C000507003CB083B000C907003CB083B000E4B
:10E9D000D07003CB083B1171986850719868000A99
:10E9E00090719868000CD07128003430009023009A
:10E9F0003C33082202A92A48FFF727FF00283DD10F
:10EA0000616B00290BD028003C30009023003C3380
:10EA10000A7909682348FFF718FF00282ED1A76B51
:10EA2000002F2AD002AE38783070711C7888FFF73A
:10EA300007FF401CC0B200903118B888FFF700FFF4
:10EA400000990818C0B200903118F888FFF7F8FE56
:10EA500000990818C0B2072804D000220021002025
:10EA6000FEF7F6FE443500953C342300072202A948
:10EA70000D48FFF7EAFE002800D1002005B0F0BDE8
:10EA8000C82500200A180000292A0000242A0000B6
:10EA9000252A0000272A0000262A0000282A000034
:10EAA000232A00002A2A0000502A000040886149D9
:10EAB0000A88904204D34988814201D301207047DB
:10EAC0000020704738B55C4CE08B5C49884222D00E
:10EAD000217F491C2177227BC9B28A4208D355493C
:10EAE00075DF002817D0A1690A0014D0884731BD0E
:10EAF00000252577217C002907D03B2176DF0028DF
:10EB000003D0A1690A0000D088476169080002D0DB
:10EB100068460570884731BD70B50600464C200038
:10EB200031001C2200F050FA002565773168414E13
:10EB3000002911D03000082200F032FA30007ADFCC
:10EB4000002808D13D48E08325773D4A0021203444
:10EB50002000FEF7D0FD70BD30007BDF0028F1D033
:10EB600070BD38B50025344C3648FFF79FFF0028AC
:10EB700019D1607F002805D0616908001BD06A4662
:10EB8000157016E0207F002801D1616800E0A168BF
:10EB90000022206AFEF7FAFD00280CD0A1690A00C5
:10EBA00009D0884707E06169080004D001206A465F
:10EBB000107068468847657731BD70B502001E4CFD
:10EBC000206A931D00251F491688102E06D0112E8D
:10EBD00011D0122E26D0502E11D070BD9088E08317
:10EBE000080016321100082200F0DAF92577E089D2
:10EBF00000281ED11BE01149E183257709E019881F
:10EC0000E289914215D1198B022912D1997EC90747
:10EC10000DD4FEF7E1FD00280BD0A1690A0008D051
:10EC2000884770BD08001900082200F0B9F9FFF705
:10EC300098FF70BD40270020EC260020FFFF000059
:10EC4000C5EA01004827002080B508001100FEF742
:10EC500010FE01BDFEB5494C2078002858D0002692
:10EC600001256069002801D1009500E00096E06868
:10EC7000002801D1012700E000272069002800D1E9
:10EC80000126009800280FD101A851DF052801D1E5
:10EC9000009509E0002804D000220021FEF7D8FDED
:10ECA00002E0019861698847002F13D160886946A6
:10ECB000088102A9A06861DF052801D1012709E0C8
:10ECC000002804D000220021FEF7C2FD02E0A06867
:10ECD000E1688847002E15D122001A32210019312F
:10ECE00020001830C1DF052801D101260AE00028E4
:10ECF00004D000220021FEF7ABFD03E02000183015
:10ED000021698847009839000140C9B23142B8D022
:10ED1000F7BD10B5002901D08C0701D0072010BD28
:10ED2000164CA16062806360154910DF002803D192
:10ED30000120207016202EDF10BD010001D10E2011
:10ED400070470E49C86000207047010001D10E20B5
:10ED500070470A4908610020704780B5074840683D
:10ED6000010007D08047002806D000220021FEF7CE
:10ED70006FFD01BDFFF76EFF01BD000060260020A2
:10ED800049EC010010B584B0684600BF03A11CC95E
:10ED90001CC06846FADF04B010BD0000010000008E
:10EDA00048250020800000000022030A8B420BD27D
:10EDB00003098B4219D243088B422ED2411A00D24A
:10EDC0000146524110467047FF2209023FD0120609
:10EDD0008B4205D3121209028B4201D3121209028F
:10EDE00003098B4219D300E0090AC3098B4201D3FE
:10EDF000CB01C01A524183098B4201D38B01C01A47
:10EE0000524143098B4201D34B01C01A52410309BD
:10EE10008B4201D30B01C01A5241C3088B4201D36C
:10EE2000CB00C01A524183088B4201D38B00C01A19
:10EE3000524143088B4201D34B00C01A52418842D1
:10EE400000D3401A5241CFD201461046704708B550
:10EE5000C046C04608BDFEE7D0B500244C4F09E0CF
:10EE600000204840012141407368180001D0100083
:10EE70009847641C3878E4B284421BD27868E10079
:10EE8000461831780120884079690842F1D08143E1
:10EE90007961307800F0FCF901003278386901239B
:10EEA00093400340080090408342E2D170780128EB
:10EEB000D6D1D6E7D0BDF8B507000125BD40344C0A
:10EEC000E068FEF789FC002819D16069EE4328420A
:10EED00013D1380000F0DCF92169002801D0294362
:10EEE00001E00E4031002161606905436561002247
:10EEF000A168E068FEF74AFCF1BD06406661F1BD1D
:10EF0000F1B582B00C001600052E01D20720FEBD1F
:10EF100000F022F9002803D100F0FBF8002825D1E9
:10EF20001B4D029868602C70AE60002028616861FB
:10EF3000184E00BF19A72000441E002810D00298C8
:10EF4000E4B2E10040183968009181786A46517056
:10EF500032006946007800F00DF90028EBD0FEBDC4
:10EF60000D4A00210C352800FEF7C5FBFEBD38B563
:10EF70000024074D06E001216868E200805C00F093
:10EF800041F9641C28788442F5D3002032BD00008A
:10EF900010270020B7EE010059EE01000300000029
:10EFA000124207D08B0706D00B78491C0370401C17
:10EFB000521EF7D87047830706D00B78491C0370A0
:10EFC000401C521EF9D1704770B4103A03D378C96F
:10EFD000103A78C0FBD2530701D318C918C001D525
:10EFE00008C908C0D20704D30B880380891C801C81
:10EFF000002A01D50B78037070BC704712420FD005
:10F00000814202D25318984203D310B5FFF7C8FFCC
:10F0100008BD80185B1E1978401E0170521EF9D180
:10F020007047010000E0491C0A78002AFBD1081A49
:10F030007047FEE74B494058012800D00020704738
:10F040000021484A81507047474A800010180268E2
:10F05000464B134003600268090411430160704786
:10F06000434908182421405604288041C00F7047A6
:10F070003F49081824214056042801DB012070472D
:10F08000002070473A49081824214056C043C00F59
:10F0900070470021C943364A101824300170704768
:10F0A00033490818242140567047314980000858D8
:10F0B000704771B581B00020C0430425002A02D1F9
:10F0C0000424092500E000244D4B00E0641CAC4200
:10F0D00012D2A6009E19009636688642F6D1019D8E
:10F0E0005D1924352C7000980160002A03D1019825
:10F0F000191940310870200040B276BD4049002205
:10F10000D2438300CA50042802DB08184030027042
:10F11000704770B5164C4920205C002801D00820AB
:10F1200070BD002500263000FFF7B3FF761C202EAF
:10F13000F9DB2800FFF7E2FF6D1C092DF9DB012147
:10F14000062000F03DF9802000064F4908600120AC
:10F1500049342070002070BD4C480078002800D051
:10F16000012070470060004000070050FFFFFCFFD7
:10F1700014260020F8B506000D0017000024FFF744
:10F1800081FF002801D0082438E0EA7839003000F7
:10F19000FFF78FFF0021C94388422ED08249B20079
:10F1A0008918AA78002A03D00A6802239A4301E04A
:10F1B0006A7892000A602978EA78002A13D0384ADF
:10F1C000800010180268794B134003600268330214
:10F1D000F8256D011D400904C0239B020B402B4301
:10F1E000134303600AE0724A131840331B78890105
:10F1F000194310184030017000E004242000F2BDD3
:10F2000014260020F8B504000F000125FFF730FF99
:10F21000002817D02000FFF743FF65490818402158
:10F2200040560006800F0221032804D1614800687F
:10F23000E040054000E0012800D003212000FFF756
:10F2400003FFF1BD2000FFF70BFF00281BD02000BB
:10F25000FFF726FF06001248B10040180168294355
:10F260000160B0002902401800B2FFF7E9FE002F4C
:10F2700009D02000FFF714FFFFF717FF002802D086
:10F28000B5404D480560F1BD046300405D26002097
:10F2900048490968C140C807C00F70470000000016
:10F2A00010650040F0B583B00020009001908025EB
:10F2B0006D000124042628B2FFF7BCFE002809D007
:10F2C0003D480068204005D028B2FFF7B9FE0098FD
:10F2D0002043009064002D1D761EECD1BE246400F6
:10F2E0002000FFF7A7FE00280AD02000FFF7A8FEA5
:10F2F000009880210906014300912E480068019082
:10F300000098000716D001240025009820400DD059
:10F310002A48A9004018076806682800FFF7C5FEBC
:10F320000200B003810FF804C00E904764006D1C0A
:10F33000042DEAD30098002834D500251C48401934
:10F34000442146560020C043864228D0F6B23700FA
:10F35000C02087433800FFF7A3FEFFF7A6FE040096
:10F360001DD03006860F1048B90040588003800F2A
:10F370000121B940019A0A4002D002280FD101E0D0
:10F3800003280CD1032E07D1022801D1032100E06C
:10F3900002213800FFF758FE31003800A0476D1CED
:10F3A000052DCBD3F7BD000000070050FFE0FCFFA8
:10F3B0001426002010050050046300401065004032
:10F3C00010B58207D30EFF249C40E2438907090E43
:10F3D0009940030005D50B4C03071B0F083B9B0806
:10F3E00001E0094C83089B00E3181C68224011438C
:10F3F00019600121C006C00E814004480160044824
:10F40000016010BD1CED00E000E400E080E200E0DF
:10F4100000E100E00020474A9070424901228A60E2
:10F420000A6043490860704700B583B001203E4937
:10F4300008604049887003206A46107068468968F1
:10F44000884707BD38B5394A394B01240225394967
:10F45000002806D0022821D00BD3042829D013D3AA
:10F4600031BD8878012824D0022824D10320887057
:10F4700031BD8878002802D003281CD117E0042071
:10F48000186014608C7031BD8878401E012802D944
:10F49000801E0ED031BDFFF7C7FF31BD887801282F
:10F4A00009D18878022800D094600878D8618D70DE
:10F4B00031BDFFF7AFFF31BDF0B583B01D4C1E4F1E
:10F4C00000251E4E306800280ED004203968014007
:10F4D0000AD035601A490968C9B2A1806A4610701D
:10F4E00011716846A16888477069002806D038689D
:10F4F000000603D575610320FFF7A4FFF06900281B
:10F500000DD0386880050AD5F5610E4801680160A4
:10F5100002206A46107001916846A1688847F7BDCD
:10F5200000000000042000400C20004000200040AB
:10F530000025004000220020042300400821004054
:10F54000182500408024004010B5F0220F201849F3
:10F550000B78012B1BD14B68034018D18B681342E9
:10F5600002D1CC6814400CD0F0241C40102C02D1E5
:10F57000CC68144005D01340302B08D1CB68134021
:10F5800005D10C4B0C4C2360E30B0C4C23600B7827
:10F59000012B0CD14B68184009D1886810404028D5
:10F5A00005D1C868024002D101200549086010BD9C
:10F5B000E00F00F0DFFF07C004050040186C0040BA
:10F5C0000806004030B401210268001D002A0FD057
:10F5D0000368C318446808300C4202D04D466D1EC3
:10F5E00064191D6825601B1D241D121FECD0F8E74F
:10F5F00030BC70470321064802680A430260054890
:10F6000002680A430260044880470448004700003B
:10F61000240500405405004049F50100A9F6010009
:10F6200010B5074979441831064C7C44163404E07F
:10F63000081D0A68891888470100A142F8D110BD49
:10F640000800000028000000B3EEFFFF3C050000AA
:10F6500014220020000000006DFFFFFF14000000D6
:10F660007C00000000220020000000000120C046B5
:10F67000002801D0FFF7D4FF0020C046C046FEF7A7
:10F680004BFA00F000F880B500F002F801BDFEE78B
:10F690000746384600F002F8FBE7FEE720210903A1
:10F6A00026311820ABBEF9E7C046C046C046C0466A
:10F6B000FFF7DCFFFEE7FEE7FEE7FEE7FEE7FEE71B
:10F6C000FEE7FEE7FEE7FEE7FEE7FEE7FEE7FEE712
:10F6D000FEE7FEE7FEE7FEE7FEE7FEE700010000CB
:10F6E000FFFF0000000000000024F400FFFF000006
:040000050001F6A957
:00000001FF
